:020000040800F2
:10000000B05B01209D220008FD220008FD220008AF
:10001000FD220008FD220008FD220008000000006B
:10002000000000000000000000000000A1CE000859
:10003000FD2200080000000001CF000865CF000885
:10004000FD220008FD220008FD220008FD22000814
:10005000FD220008FD220008051D0008FD22000801
:10006000FD220008FD220008FD220008FD220008F4
:10007000FD220008FD220008FD220008FD220008E4
:10008000FD220008FD220008FD220008FD220008D4
:10009000FD220008FD220008FD220008FD220008C4
:1000A000FD220008FD220008FD220008FD220008B4
:1000B000DD1E0108FD220008D1190108FD220008FB
:1000C000FD2200086D7D00081D7F0008491D000805
:1000D000FD220008FD220008910600084D360008A8
:1000E000FD220008FD220008FD220008FD22000874
:1000F000FD220008FD220008FD220008FD22000864
:10010000FD220008FD220008FD220008FD22000853
:10011000290A0008FD220008FD220008FD2200082F
:10012000FD220008FD220008FD220008FD22000833
:1001300059310008FD220008FD220008FD220008B8
:10014000FD220008FD220008FD220008FD22000813
:10015000FD220008FD220008FD220008FD22000803
:10016000FD220008FD220008FD220008FD220008F3
:10017000FD220008FD220008FD220008FD220008E3
:10018000FD220008FD220008134A00E01A46136809
:100190008342FBD310B451685418A04203D1406885
:1001A00001445160104641684418A3420CD10A4BE7
:1001B0009B689C4206D063681944416013681B68C1
:1001C000036002E0046000E00360904218BF10602A
:1001D0005DF8044B704700BFA05C0020F8B50446F2
:1001E00007F05CF93B4B9B6823BB3B4A12F0070FBF
:1001F00007D0D11D21F0070102F5A0435B1A0A4682
:1002000001E04FF4A04333480260002141601344F1
:10021000083B23F00703836059601960991A516005
:1002200013602E4BC3F82C1CC3F8301C4FF0004257
:10023000C3F8342C294BD3F8345C25423DD1002C33
:100240003DD004F1080212F0070F1CBF22F0070294
:100250000832002A35D0214BD3F8306CB24232D864
:100260001C490C6801E021461C4663689A4202D989
:100270002368002BF7D1174B9B689C4225D00F6851
:10028000083723680B6063689B1A102B04D9A018E9
:1002900043606260FFF778FF6268B31A0F49C1F8E4
:1002A000303CD1F82C1C8B423CBF0C49C1F82C3C93
:1002B000154365600023236008E0002706E000275F
:1002C00004E0002702E0002700E0002707F07CF9A7
:1002D0003846F8BDA05C0020AC5C002080A0002067
:1002E00008B3034650F8042C0F49D1F8341C0A42D5
:1002F00019D050F8080CB0B910B51C4622EA01021A
:1003000043F8042C07F0CAF8074A54F8041CD2F842
:10031000303C0B44C2F8303CA4F10800FFF734FF36
:1003200007F052F910BD704780A00020014BD3F8B0
:10033000300C704780A0002010B401F003039B0034
:1003400001F0FC0101F1804101F59C318C680F2224
:100350009A4024EA02028A608A68984010438860C2
:100360005DF8044B704700BF30B585B004460D46BC
:10037000038A9BB223F44053CA88134303828389C0
:100380009BB223F4B05323F00C0289882B890B43D2
:1003900069890B439BB213438381838A9BB223F405
:1003A0004073AA8913438382684602F087F91C4B85
:1003B0009C4203D003F580639C4201D1039B00E083
:1003C000029BA28912F4004F03EB830303EB830328
:1003D000296814BF49008900B3FBF1F1114BA3FB5D
:1003E000012358090501642300FB1313A28912F4A9
:1003F000004F09D0D90032310A4AA2FB0131C1F3C2
:10040000421242EA050307E01B013233054AA2FB10
:100410000323C3F343132B439BB2238105B030BDA9
:10042000001001401F85EB5129B183899BB243F431
:10043000005383817047838923F400531B041B0CF2
:1004400083817047C1F30801818070478088C0F3C1
:100450000800704710B4C1F3421401F01F010123DA
:1004600003FA01F19C4201D10C3003E0022C0CBFD5
:10047000103014301AB103681943016003E00368B7
:1004800023EA010101605DF8044B704703881942BB
:1004900014BF01200020704710B4C1F3421201F0D4
:1004A0001F040123A340012A03D1828992B2134081
:1004B00005E0022A0CBF028A828A92B213400288A7
:1004C00092B243B1090A012303FA01F10A4214BFAF
:1004D0001846002000E000205DF8044B704700BF84
:1004E000090A012303FA01F1C94389B20180704767
:1004F00070B58CB00323009300231A4619460120DF
:100500000CF038FE2F4B186020B100231A46194614
:100510000CF048FE0121082002F022F960230A9322
:1005200002238DF82C308DF82D3000248DF82E40CC
:1005300001258DF82F50244E0AA930460BF05CFBA4
:100540000722052130460BF0A9FB07220621304681
:100550000BF0A4FB29464FF4003002F00FF94FF4E2
:1005600061230693ADF824400C23ADF82230ADF89A
:100570002040ADF81E40ADF81C40A6F5E43606A9B3
:100580003046FFF7F1FE29463046FFF74DFF0F4B8F
:1005900040225A60702283F826232A4640F22551D1
:1005A0003046FFF757FF0494039402940194042308
:1005B0000093234664220649064806F05DFE0CB00F
:1005C00070BD00BFB8AC0020000C024000E100E0AC
:1005D0005C790108511C000830B587B00121042066
:1005E00002F0BEF84FF48063049302238DF81430B8
:1005F00001248DF81740234D04A928460BF0FCFA7E
:100600002146042002F0ACF84FF40063049304A9DF
:1006100028460BF0F1FA08220A2128460BF03EFB8F
:1006200008220B2118480BF039FB21464FF400201B
:1006300002F0A4F84FF4165300930023ADF80C30E9
:100640000C22ADF80A20ADF80830ADF80630ADF850
:100650000430A5F5DE3569462846FFF785FE2146BC
:100660002846FFF7E1FE094B4FF480125A607022D2
:1006700083F83423224640F225512846FFF7EAFE4C
:1006800007B030BD00080240000C024000E100E06D
:1006900070B540F225319648FFF7FEFE01280BD1D8
:1006A000934C40F225312046FFF7F0FE2046FFF73D
:1006B000CDFE00228F4B1A7040F227718C48FFF755
:1006C000EBFE012826D140F227718948FFF708FF89
:1006D000894A1379DBB252799A420CD0864C23793D
:1006E000DBB2864AD15C8248FFF7ACFE2379013346
:1006F000DBB2237170BD00257F4B1D717C4C0D2139
:100700002046FFF79FFE2A4640F227712046FFF75A
:10071000A1FE70BD40F225517548FFF7BDFE0128CE
:1007200040F05E81724E40F225513046FFF7D8FE10
:10073000704D2C78E4B23046FFF788FEC0B2704AA4
:1007400010552B78DBB2D35CDBB20D2B40F03E8131
:100750000022694B9A712B7813F0FF0F36D0694B4A
:100760001B78674A1278DBB293420DD101232C46E5
:10077000644E634D24E0F25CE85CD2B2591CC9B20D
:1007800082421CD05C4A937100225B4BDA71594B58
:100790001B7813F0FF0F0ED01346594C594855499A
:1007A000E25CD2B2C2540133DBB20A78D2B29A42CE
:1007B000F6D8514AD37100224E4B1A7070BD0B46C9
:1007C0002278D2B29A42D6D84B4A937100224A4B31
:1007D000DA71484B1B7813F0FF0F0ED01346484CCC
:1007E00048484449E25CD2B2C2540133DBB20A78D1
:1007F000D2B29A42F6D8404AD37100223D4B1A70C9
:100800003F4B1B78DBB2642B00F2EA803C4B5978FB
:100810003D4AD17099789170D978517019791170D9
:100820001B78013B1A2B00F2C880DFE813F01B0095
:10083000200025002A002F00340039003E0043002C
:1008400048004D005200C60057005C008B0090002D
:1008500095009A009F00A400A900AE00B300B80064
:10086000BD00C200284B1A68284B1A60A5E0264B31
:100870001A68274B1A60A0E0234B1A68254B1A60B0
:100880009BE0214B1A68244B1A6096E01E4B1A68B5
:10089000224B1A6091E01C4B1A68214B1A608CE0C5
:1008A000194B1A681F4B1A6087E0174B1A681E4BCA
:1008B0001A6082E0144B1A681C4B1A607DE0124BE0
:1008C0001A681B4B1A6078E00F4B1A68194B1A60B4
:1008D00073E00D4B1A68184B1A606EE00A4B1A68E9
:1008E000164B1A6069E0084B1A68154B1A6064E0F1
:1008F00000440040F8B10020B8AC0020ECB000206B
:1009000000B20020E0B0002010B20020B4000020AF
:1009100074AF0020FCAF0020B8000020BC00002015
:10092000C0000020CC000020D4000020D000002017
:10093000C8000020A8AF0020C4000020D80000207C
:10094000DC000020274B1A68274B1A6035E0254B46
:100950001A68264B1A6030E0224B1A68244B1A6042
:100960002BE0204B1A68234B1A6026E01D4B1A68B7
:10097000214B1A6021E01B4B1A68204B1A601CE0C7
:10098000184B1A681E4B1A6017E0164B1A681D4B5D
:100990001A6012E0134B1A681B4B1A600DE0114BE2
:1009A0001A681A4B1A6008E00E4B1A68184B1A6046
:1009B00003E00C4B1A68174B1A600122164B1A7091
:1009C0001649174B18680CF08DFC70BD154B1B7841
:1009D000DBB2082B04D8134A13780133DBB213704F
:1009E00070BD00BF10B20020E00000200801002010
:1009F000EC000020F4AF0020E4000020E80000201C
:100A0000F0000020F400002004010020F800002085
:100A1000FC00002000010020A83B0120C0AC002009
:100A20003CAF0020F8B1002010B540F2253123483A
:100A3000FFF732FD012808D1204C40F22531204635
:100A4000FFF724FD2046FFF701FD40F227711B4808
:100A5000FFF722FD012824D1194A137801331370BE
:100A600040F227711548FFF73BFD164A137BDBB2B6
:100A7000527B9A420CD0134C237BDBB2124AD15CDE
:100A80000E48FFF7DFFC237B0133DBB2237310BD7D
:100A900000220C4B1A7340F227710848FFF7DAFC6A
:100AA00010BD40F225510548FFF7F6FC012804D19E
:100AB00040F225510148FFF713FD10BD004C0040E6
:100AC00014B20020B8AC002034B2002038B50B4C72
:100AD000002323712379DBB2094AD15C094D2846F2
:100AE000FFF7B0FC23790133DBB22371012240F21E
:100AF00027712846FFF7AEFC38BD00BFB8AC002018
:100B0000ECB000200044004038B50B4C00232373A8
:100B1000237BDBB2094AD15C094D2846FFF792FCE2
:100B2000237B0133DBB22373012240F22771284675
:100B3000FFF790FC38BD00BFB8AC002034B20020F5
:100B4000004C004008B5354A00211170344B83ED4C
:100B5000000AD8781070987850705878907018788B
:100B6000D070C3ED000AD878107198785071587819
:100B700090711878D07183ED001AD8781072987837
:100B80005072587890721878D072C3ED001AD878E5
:100B9000107398785073587890731878D07383EDE9
:100BA000002AD8781074987850745878907418780F
:100BB000D074C3ED002AD87810759878507558789D
:100BC00090751878D07583ED003AD87810769878BB
:100BD0005076587890761878D076C3ED003AD87869
:100BE000107798785077587890771878D07783ED89
:100BF000004AD87882F82000987882F82100587846
:100C000082F822001B7882F8233082F824102522F3
:100C1000044B5A71FFF75AFF08BD00BFECB000202B
:100C2000F4B10020B8AC002070B582B0147801385F
:100C3000392800F28687DFE810F03A005701E7060E
:100C4000EC008501840784078407840784078407F0
:100C500084073C0784078407E401AF022604690384
:100C6000E9048407840784078407840784078407CA
:100C700084073D018407CC06620784078407840744
:100C80008407840784078407B705840784078407DB
:100C900084078407840784078407840784078407FC
:100CA0008407840784078407840784070C065E236F
:100CB0000B55631CDBB20120C854A31CDEB2BF4B32
:100CC000D3ED007AFDEEE77ACDED017A9DF80400D0
:100CD0005E2808D15D238B55E31CDBB23E20C8544F
:100CE000231DDEB212E05D2808D15D238B55E31C85
:100CF000DBB23D20C854231DDEB207E0A0F15D0346
:100D0000DBB2012B02D98855E31CDEB2AB4BD3ED2D
:100D1000007AFDEEE77A17EE900AC0F307205E280E
:100D200008D15D238B55731CDBB23E20C854B31C25
:100D3000DEB212E05D2808D15D238B55731CDBB257
:100D40003D20C854B31CDEB207E0A0F15D03DBB266
:100D5000012B02D98855731CDEB2984BD3ED007A73
:100D6000BDEEE77AB8EEC77A77EEC77A9FED947A50
:100D700067EE877AFCEEE77ACDED017A5E238B553C
:100D8000701CC0B209230B54B31CDBB2BDF9045074
:100D90009DF804005E2808D15D20C854F31CDBB226
:100DA0003E20C854331DDBB211E05D2807D1C85482
:100DB000F31CDBB23D20C854331DDBB207E0A0F1C9
:100DC0005D04E4B2012C02D9C854F31CDBB2C5F3B4
:100DD00007205E2808D15D20C854581CC0B23E24AC
:100DE0000C540233DBB211E05D2807D1C854581C03
:100DF000C0B23D240C540233DBB207E0A0F15D0425
:100E0000E4B2012C02D9C8540133DBB2137000F0F4
:100E100098BE6C4BD3ED007AFDEEE77ACDED017A0A
:100E2000BDF904005E230B55631CDBB20425CD54D1
:100E3000A31CDBB2C5B25E2D08D15D25CD54E31CE9
:100E4000DBB23E25CD540434E3B211E05D2D07D171
:100E5000CD54E31CDBB23D25CD540434E3B207E0AE
:100E6000A5F15D06F6B2012E02D9CD540334E3B2EA
:100E7000C0F307205E2808D15D20C854581CC0B2BA
:100E80003E240C540233DBB211E05D2807D1C85474
:100E9000581CC0B23D240C540233DBB207E0A0F171
:100EA0005D04E4B2012C02D9C8540133DBB21370E3
:100EB00000F047BE444B1B7803F00403DBB2002B69
:100EC00014BF802000205E230B55631CDBB21D2560
:100ED000CD54A31CDBB2C854E31CDBB20020C854C1
:100EE0000434147000F02DBE384B18785E230B5577
:100EF000631CDBB20225CD546319DBB25E2808D136
:100F00005D20C854E31CDBB23E20C8540434E3B275
:100F100011E05D2807D1C854E31CDBB23D20C85462
:100F20000434E3B207E0A0F15D05EDB2012D02D972
:100F3000C8540334E3B20020C8540133DBB2137049
:100F400000F0FFBD224B187800EB8000214B1B788E
:100F500003EB40005E230B55631CDBB20525CD542B
:100F6000A31CDBB205B2C0B25E2808D15D20C85414
:100F7000E31CDBB23E20C8540434E3B211E05D2828
:100F800007D1C854E31CDBB23D20C8540434E3B29B
:100F900007E0A0F15D06F6B2012E02D9C854033471
:100FA000E3B2C5F307205E2816D15D20C854581C53
:100FB000C0B23E240C540233DBB21FE0F4B6002072
:100FC00000401C46D4B6002015B20020F0B100202D
:100FD00038B80020CCB700205D2807D1C854581C71
:100FE000C0B23D240C540233DBB207E0A0F15D0433
:100FF000E4B2012C02D9C8540133DBB2137000F003
:10100000A0BDBE4BD3ED0C7A5E230B55631CDBB247
:101010001020C854A31CDEB2BDEEE77A8DED017A34
:10102000BDF904009DF804505E2D08D15D238B5559
:10103000E31CDBB23E25CD54231DDEB212E05D2D54
:1010400008D15D238B55E31CDBB23D25CD54231D18
:10105000DEB207E0A5F15D03DBB2012B02D98D55AD
:10106000E31CDEB2C0F307205E2808D15D238B5558
:10107000731CDBB23E20C854B31CDEB212E05D2804
:1010800008D15D238B55731CDBB23D20C854B31CC3
:10109000DEB207E0A0F15D03DBB2012B02D9885577
:1010A000731CDEB2F5EEC07AF1EE10FA0EDDBCEE86
:1010B000E77AB8EE477A77EEC77A9FED917A67EED6
:1010C000877AFCEEE77ACDED017A1AE0F5EEC07A88
:1010D000F1EE10FA07D8BFEE007AF4EEC77AF1EE1F
:1010E00010FA00F322859DED017AB8EEC77A77EE0B
:1010F000677A9FED837A67EE877AFCEEE77ACDED2B
:10110000017A5E238B55701CC0B221230B54B31C93
:10111000DBB2BDF904509DF804005E2808D15D20C3
:10112000C854F31CDBB23E20C854331DDBB211E0BF
:101130005D2807D1C854F31CDBB23D20C854331DD1
:10114000DBB207E0A0F15D04E4B2012C02D9C8547F
:101150000133DBB2C5F307205E2808D15D20C854F7
:10116000581CC0B23E240C540233DBB211E05D289F
:1011700007D1C854581CC0B23D240C540233DBB212
:1011800007E0A0F15D04E4B2012C02D9C854013398
:10119000DBB2137000F0D5BC5E230B55631CDBB2D1
:1011A0001120C854A31CDBB25648D0ED007AFDEEE6
:1011B000E77ACDED017A9DF804005E2808D15D2024
:1011C000C854E31CDBB23E20C8540434E3B211E03F
:1011D0005D2807D1C854E31CDBB23D20C854043459
:1011E000E3B207E0A0F15D05EDB2012D02D9C854CC
:1011F0000334E3B24348D0ED007AFDEEE77A17EE10
:10120000900AC0F307205E2808D15D20C854581CFE
:10121000C0B23E240C540233DBB211E05D2807D18A
:10122000C854581CC0B23D240C540233DBB207E052
:10123000A0F15D04E4B2012C02D9C8540133DBB241
:1012400013703048D0ED007ABDEEE77AB8EEC77A79
:1012500077EEC77A9FED2C7A67EE877AFCEEE77A15
:10126000CDED017A5E20C854581CC0B219240C542C
:10127000981CC6B2BDF904509DF804005E2808D140
:101280005D208855D81CC0B23E240C540433DEB215
:1012900011E05D2807D18855D81CC0B23D240C54FC
:1012A0000433DEB207E0A0F15D04E4B2012C02D900
:1012B00088550333DEB2C5F307205E2808D15D23CD
:1012C0008B55731CDBB23E20C854B31CDEB212E057
:1012D0005D2808D15D238B55731CDBB23D20C854BB
:1012E000B31CDEB207E0A0F15D04E4B2012C02D928
:1012F0008855731CDEB2167000F023BC605C0020C1
:101300000000C842ECB7002000007A44BC4B93EDCB
:10131000007A5E230B55631CDBB21320C854A31C58
:10132000DBB2FDEEC77ACDED017ABDF904009DF880
:1013300004505E2D08D15D25CD54E31CDBB23E2563
:10134000CD540434E3B211E05D2D07D1CD54E31C3C
:10135000DBB23D25CD540434E3B207E0A5F15D06D0
:10136000F6B2012E02D9CD540334E3B2C0F3072004
:101370005E2808D15D20C854581CC0B23E240C54CD
:101380000233DBB211E05D2807D1C854581CC0B24B
:101390003D240C540233DBB207E0A0F15D04E4B25B
:1013A000012C02D9C8540133DBB2DDED017AF8EE2D
:1013B000E77A77EE677ADFED936A67EEA67AFCEE5E
:1013C000E77ACDED017A5E20C854581CC0B21B24C8
:1013D0000C549C1CE4B2BDF904509DF804005E2836
:1013E00008D15D200855D81CC0B23E240C540433EB
:1013F000DCB211E05D2807D10855D81CC0B23D24ED
:101400000C540433DCB207E0A0F15D06F6B2012E05
:1014100002D908550333DCB2C5F307205E2808D192
:101420005D230B55631CDBB23E20C854A31CDCB209
:1014300012E05D2808D15D230B55631CDBB23D2013
:10144000C854A31CDCB207E0A0F15D03DBB2012BA2
:1014500002D90855631CDCB2B5EEC07AF1EE10FA81
:101460004CBF53234E235E200855601CC0B2232579
:101470000D54A01CC0B20B54E01CC0B200230B548E
:10148000231D13705DE3604B93ED007A5E230B55D3
:10149000631CDBB21220C854A31CDBB2FDEEC77A7A
:1014A000CDED017ABDF904009DF804505E2D08D100
:1014B0005D25CD54E31CDBB23E25CD540434E3B2AC
:1014C00011E05D2D07D1CD54E31CDBB23D25CD5499
:1014D0000434E3B207E0A5F15D06F6B2012E02D9AD
:1014E000CD540334E3B2C0F307205E2808D15D2059
:1014F000C854581CC0B23E240C540233DBB211E075
:101500005D2807D1C854581CC0B23D240C54023386
:10151000DBB207E0A0F15D04E4B2012C02D9C854AB
:101520000133DBB2DDED017AF8EEE77A77EE677A28
:10153000DFED346A67EEA67AFCEEE77ACDED017A4C
:101540005E20C854581CC0B21A240C549C1CE4B22F
:10155000BDF904509DF804005E2808D15D200855AF
:10156000D81CC0B23E240C540433DCB211E05D2818
:1015700007D10855D81CC0B23D240C540433DCB24A
:1015800007E0A0F15D06F6B2012E02D9085503333B
:10159000DCB2C5F307205E2808D15D230B55631C20
:1015A000DBB23E20C854A31CDCB212E05D2808D197
:1015B0005D230B55631CDBB23D20C854A31CDCB279
:1015C00007E0A0F15D03DBB2012B02D90855631CD3
:1015D000DCB2B5EEC07AF1EE10FA4CBF57234523CA
:1015E0005E200855601CC0B222250D54A01CC0B25C
:1015F0000B54E01CC0B200230B54231D1370A0E257
:1016000018B8002000401C4628B8002016460D4699
:10161000B54B93ED007AB54BD3ED007A67EEA76A30
:1016200067EE070A76EEA06AB14B93ED000A27EE4B
:10163000007AB04B93ED000A27EE800AF6EE000A1E
:1016400076EEE00A37EE400A11F06AFCAA4BD3EDC1
:10165000007A30EE270ADFEDA97A20EE270A5E2312
:101660002B55631CDBB21422EA54A31CDBB2FDEE43
:10167000C07ACDED017ABDF904209DF804105E29F1
:1016800008D15D21E954E31CDBB23E21E954043466
:10169000E3B211E05D2907D1E954E31CDBB23D213F
:1016A000E9540434E3B207E0A1F15D00C0B20128BF
:1016B00002D9E9540334E3B2C2F307225E2A08D107
:1016C0005D22EA545A1CD2B23E21A9540233DBB245
:1016D00011E05D2A07D1EA545A1CD2B23D21A95427
:1016E0000233DBB207E0A2F15D01C9B2012902D9E0
:1016F000EA540133DBB2DDED017AF8EEE77A30EE41
:10170000670ADFED7F7A20EE270AFCEEC07ACDED86
:10171000017A5E22EA545A1CD2B21C21A9549A1CA6
:10172000D4B2BDF904109DF804205E2A08D15D22D0
:101730002A55DA1CD2B23E20A8540433DCB211E0A0
:101740005D2A07D12A55DA1CD2B23D20A8540433B1
:10175000DCB207E0A2F15D00C0B2012802D92A552F
:101760000333DCB2C1F307225E2A08D15D232B5577
:10177000631CDBB23E22EA54A31CDCB212E05D2AF9
:1017800008D15D232B55631CDBB23D22EA54A31C18
:10179000DCB207E0A2F15D01C9B2012902D92A55E4
:1017A000631CDCB23470CCE1564BD3ED007AB2EE60
:1017B000047A67EE877AFDEEE77ACDED017A5E2353
:1017C0000B55631CDBB22820C854A31CDEB2BDF944
:1017D00004009DF804305E2B08D15D238B55E31C7B
:1017E000DBB23E25CD540434E6B211E05D2B07D1C7
:1017F0008B55E31CDBB23D25CD540434E6B207E043
:10180000A3F15D05EDB2012D02D98B550334E6B28B
:10181000C0F307235E2B08D15D238B55731CDBB20D
:101820003E20C854B31CDEB211E05D2B07D18B55AE
:10183000731CDBB23D20C854B31CDEB207E0A3F139
:101840005D00C0B2012802D98B55731CDEB2167040
:1018500077E12D4BD3ED007A9FED2C7A67EE877AF6
:101860005E230B55631CDBB23A20C854A31CDBB2C9
:10187000BDEEE77A8DED017ABDF904009DF80450C4
:101880005E2D08D15D25CD54E31CDBB23E25CD5441
:101890000434E3B211E05D2D07D1CD54E31CDBB27B
:1018A0003D25CD540434E3B207E0A5F15D06F6B260
:1018B000012E02D9CD540334E3B2C0F307205E28D1
:1018C00008D15D20C854581CC0B23E240C540233C9
:1018D000DBB225E05D281BD1C854581CC0B23D24A2
:1018E0000C540233DBB21BE05CAD00203C00002056
:1018F00058AD002060AD0020F0C40020E12E65420C
:1019000000007A44DCB60020BCB60020C217063FB7
:10191000A0F15D04E4B2012C02D9C8540133DBB25A
:101920009DED017AB8EEC77A77EEC77AB2EE047A07
:1019300067EE877AFCEEE77ACDED017A5E20C85437
:10194000581CC0B23B240C54981CC6B2BDF90450BC
:101950009DF804005E2808D15D208855D81CC0B2CF
:101960003E240C540433DEB211E05D2807D18855C3
:10197000D81CC0B23D240C540433DEB207E0A0F101
:101980005D04E4B2012C02D988550333DEB2C5F3FD
:1019900007205E2808D15D238B55731CDBB23E20E7
:1019A000C854B31CDEB212E05D2808D15D238B550C
:1019B000731CDBB23D20C854B31CDEB207E0A0F1BB
:1019C0005D04E4B2012C02D98855731CDEB2167096
:1019D000B7E05D4B1B78002B0CBF002003205B4B56
:1019E0001B780BB140F00C005E230B55631CDBB27F
:1019F0001F25CD54A31CDBB2C854E31CDBB200206E
:101A0000C854043414709CE0514BD3ED007A9FED20
:101A1000517A67EE877AFDEEE77ACDED017A5E23A3
:101A20000B55631CDBB20320C854A31CDEB2BDF906
:101A300004009DF804305E2B08D15D238B55E31C18
:101A4000DBB23E25CD540434E6B211E05D2B07D164
:101A50008B55E31CDBB23D25CD540434E6B207E0E0
:101A6000A3F15D05EDB2012D02D98B550334E6B229
:101A7000C0F307235E2B08D15D238B55731CDBB2AB
:101A80003E20C854B31CDEB211E05D2B07D18B554C
:101A9000731CDBB23D20C854B31CDEB207E0A3F1D7
:101AA0005D00C0B2012802D98B55731CDEB21670DE
:101AB00047E0294BD3ED007A9FED287AF4EEC77A00
:101AC000F1EE10FA08DC9FED237A67EE877AFDEEDF
:101AD000E77A17EE903A01E042F206735E2008556D
:101AE000601CC0B20D250D54A01CC0B20B54E01CEC
:101AF000C0B243F307230B540434147021E0184B95
:101B00001B78012B14BF042003205E230B55631C9C
:101B1000DBB22025CD54A31CDBB2C854E31CDBB2DE
:101B20000020C854043414700BE05E238B55731CE2
:101B3000DBB22120C854B31CDBB200200546FFF7FE
:101B400001BB02B070BD00BF95C6002044B30020A9
:101B5000943B01200000C84220000020CDCCC742A9
:101B6000ACC6002070B51D4E3446002304F80D3F6E
:101B70001B4D224629461D20FFF756F822462946CE
:101B80000220FFF751F8224629460520FFF74CF8BE
:101B9000224629461420FFF747F8224629462820E6
:101BA000FFF742F8224629463A20FFF73DF8224641
:101BB00029460120FFF738F8224629461020FFF772
:101BC00033F8224629460320FFF72EF8737B5E2266
:101BD000EA5401337373FEF797FF70BDB8AC002071
:101BE00034B2002070B5184E3446002304F80D3F7F
:101BF000164D224629461120FFF716F8224629469F
:101C00000420FFF711F8224629461320FFF70CF8AD
:101C1000224629461220FFF707F8224629460D20C2
:101C2000FFF702F8224629461F20FEF7FDFF224655
:101C300029462020FEF7F8FF737B5E22EA54013329
:101C40007373FEF761FF70BDB8AC002034B20020A2
:101C50002DE9F0412DED0A8BDFF8A480214F224EB3
:101C600000234FF0FF321946D8F800000BF06AFB52
:101C700097ED008AD6ED008A1C4B93ED009A1C4B21
:101C8000D3ED009A1B4B93ED03AAD3ED04AA93ED79
:101C90000CBA194BD3ED00BA184B93ED00CA0134BE
:101CA000E4B20135EDB2132C02D9FFF75BFF00243B
:101CB000592D02D9FFF796FF0025B0EE4C4AF0EE01
:101CC0006B3AB0EE4B3AF0EE6A2AB0EE4A2AF0EEEA
:101CD000691AB0EE491AF0EE680AB0EE480AFEF74B
:101CE00031FFBDE73C00002058AD00205CAD002076
:101CF00060AD0020605C0020BCB60020DCB6002097
:101D0000B8AC002010B501200FF030FD10210A48BA
:101D100009F0C2FF094C0122602120460FF082FB2E
:101D2000BB2120460FF07CFBFF22054B1A70054AB1
:101D300013680133136010BD000002400030014001
:101D400034B3002038B3002070B5602121480FF073
:101D500081FB00283DD0204B1C780D2C26D11D4D39
:101D60000022602128460FF05DFB1B4C2678284698
:101D70000FF052FB194B9855FF2323701021184880
:101D800009F088FF174C214660680BF0ABFA236816
:101D9000FBB14FF08052144B1A60BFF34F8FBFF36B
:101DA0006F8F124A13680133136070BDFF2C05D08A
:101DB00008480FF031FB094B185502E005480FF0B9
:101DC0002BFB054A137801331370002101480FF0F3
:101DD00027FB70BD0030014034B3002048B3002021
:101DE00000000240C8AC002004ED00E03CB300203D
:101DF0002DE9F04188B00121084600F0B1FC4FF018
:101E00001008CDF8188002278DF81D7001268DF876
:101E10001C6000248DF81E408DF81F40284D06A937
:101E2000284609F0E9FE4146284609F033FF3146CD
:101E3000304600F095FCE02306938DF81C708DF879
:101E40001E408DF81F4006A9284609F0D5FE052240
:101E50001146284609F022FF05220621284609F0EE
:101E60001DFF05220721284609F018FF31464FF4CF
:101E7000805000F091FCADF812402823ADF81030EE
:101E80004FF48273ADF80630ADF80A40ADF80C405F
:101E9000ADF804404FF40073ADF80E300723ADF8F1
:101EA0001430ADF80840074C01A920460FF072FA33
:101EB000314620460FF090FA08B0BDE8F08100BF2F
:101EC000000002400030014030B585B00121022001
:101ED00000F046FC0124009402238DF80530002513
:101EE0008DF804506946114809F086FE21464FF4EA
:101EF000804000F051FC29462046FEF71DFA20469E
:101F00000FF034FC02948DF80C5008238DF80D303E
:101F10008DF80E400DEB03000FF0E0FB044B302278
:101F200083F8062340221A6005B030BD0004024049
:101F300000E100E0094A138903F002039BB2002B81
:101F4000F9D080B2054B98811A46138913F0010F1E
:101F5000FBD0024B9889C0B2704700BF00300140EF
:101F600008B50020FFF7E6FF08BD00BF38B50546FD
:101F7000084C1021204609F08FFE45F08000FFF745
:101F8000D9FFFFF7EDFF05461021204609F082FE3C
:101F9000284638BD0000024070B506460D46084C84
:101FA0001021204609F078FE3046FFF7C3FF28468F
:101FB000FFF7C0FF1021204609F06CFE70BD00BF86
:101FC0000000024038B505460C464FF44873013B0B
:101FD0009BB2002BFBD110210D4809F05DFE284675
:101FE000FFF7C4FF2043C1B24FF44873013B9BB2DB
:101FF000002BFBD12846FFF7CFFF1021044809F042
:1020000049FE4FF44873013B9BB2002BFBD138BD16
:102010000000024008B57520FFF7A8FF2C4B18817F
:102020006B20FFF7A3FF00F0BF016B20FFF7B4FFA9
:1020300001211920FFF7C6FF1920FFF797FF01289C
:1020400002D00122234B1A7003211A20FFF7BAFF96
:102050001A20FFF78BFF032802D001221D4B1A70B4
:1020600010211B20FFF7AEFF1B20FFF77FFF10287A
:1020700002D00122174B1A7010211C20FFF7A2FF7B
:102080001C20FFF773FF102802D00122114B1A7099
:1020900001213820FFF796FF3820FFF767FF01285E
:1020A00003D001220B4B1A7002E00A4B1B783BB1A4
:1020B000094A137863F07F0313700322074B1A70E9
:1020C0004FF44873013B9BB2002BFBD108BD00BF0E
:1020D000C8AC002044B3002015B20020A83B01206A
:1020E00030B587B00024049403940294284B1B68F5
:1020F00001930623009323464FF416722549264880
:1021000005F0BAF803230093234622462146012016
:102110000BF030F8214B586020B12346224621466F
:102120000BF040F800240494039402941C4B1B68A9
:1021300001930325009523464FF4C87219491A48A4
:1021400005F09AF8009523462246214601200BF01F
:1021500011F8164B186020B12346224621460BF099
:1021600021F804F0D1FD04F0DDFFFFF741FE48F255
:102170004033013BFDD1FFF74DFF0D4B302283F87B
:10218000232308225A60FFF79FFE07B030BD00BF2F
:1021900040B30020687901084DEC0008C8AC00206D
:1021A000C43A01207079010821F9000864B00020C8
:1021B00000E100E038B51546012902D10023136083
:1021C00038BD8C082CD000F110032246DFED327AA6
:1021D000F0EE676A13ED046A76EE266A26EE066A6A
:1021E00076EE277A13ED036A76EE866A26EE066AA5
:1021F00076EE277A13ED027A76EE876A27EE077A73
:1022000077EE277A13ED017A76EE876A27EE077A62
:1022100077EE277A1033013ADCD100EB041003E0AB
:10222000DFED1D7AF0EE676A11F0030309D0B0EC20
:10223000017A76EE876A27EE077A77EE877A013B96
:10224000F5D107EE101AB8EE477AF7EE005A77EE9E
:10225000655A86EE876AC7EEA56A26EE066A87EE9D
:10226000250A26EE006A36EEC66AB5EEC06AF1EEC1
:1022700010FA0DDDB1EEC60AB4EE400AF1EE10FA26
:1022800003D0B0EE460A10F0E1FF85ED000A38BD3C
:1022900000232B6038BD00BF0000000008B5114BC3
:1022A000114A9A420CD2581E801A20F003000430C2
:1022B0000E4B184453F8041B42F8041B8342F9D117
:1022C0000B480C494FF000028842B8BF40F8042B7D
:1022D000FADBDFF82400016841F47001016000F0CE
:1022E00049F908BD4C050020000000208C8701083A
:1022F000A05C0020AC3B012088ED00E008B500F0B8
:10230000B5F8FEE7018042804360704708B5114D83
:10231000B0EE088A104CD5ED007AF4EEC87AF1EEF2
:1023200010FA0FD50121204609F0B4FC4FF41670C5
:1023300005F0BEF90121204609F0AEFCC82005F0E9
:10234000B7F9E8E70121204609F0A4FC642005F074
:10235000AFF9E0E7200000200010024008B5104E61
:10236000104D0224337813F0040F0FD02146284675
:1023700009F090FC4FF4617005F09AF92146284667
:1023800009F08AFC642005F093F9EBE72146284622
:1023900009F080FC4FF4C87005F08AF9E2E700BF4D
:1023A00015B200200010024008B52C4D2C4C2D4ECB
:1023B0002B7813F0FF0F31D12B4B1B78032B16D149
:1023C0000421204609F068FC0821204609F062FC3F
:1023D000642005F06DF90821204609F05DFC042118
:1023E000204609F057FC642005F062F9E0E704217B
:1023F000204609F04FFC0821204609F04DFC1E2024
:1024000005F056F90821204609F044FC0421204635
:1024100009F042FC1E2005F04BF9C9E704212046D3
:1024200009F03AFC502005F043F94FF440413046A2
:1024300009F030FC502005F03BF90421204609F05A
:102440002BFC502005F034F94FF44041304609F0A0
:1024500021FC502005F02CF9AAE700BFA83B012081
:1024600000100240000C0240E4C5002010B546F602
:1024700086714FF080400FF0B5FF46F686714FF041
:1024800080400FF0B1FF46F686714FF080400FF0AC
:10249000ADFF46F686714FF080400FF0A9FF084C63
:1024A0000A22084920460EF03DFC074B1822074936
:1024B00020460EF0DFFC20460EF0C6FD10BD00BF2A
:1024C00060B30020000000205CB300207479010894
:1024D00030B589B00121082000F050F90121082011
:1024E00010F060F801A800F0E9F84FF0FF33069310
:1024F000039B5B000D4AA2FB03239B0C013BADF841
:1025000014300025ADF81C50ADF81650084C05A944
:1025100020460FF00BFE294620460FF055FE012104
:1025200020460FF053FE09B030BD00BF83DE1B43D1
:10253000000C004030B583B00121102000F010F9EC
:102540000F25009501238DF8043000238DF8053008
:102550008DF806308DF80730054C6946204609F0A5
:102560004BFB2946204609F095FB03B030BD00BF68
:102570000010024030B587B009F0ECFB3E4B013B48
:10258000FDD1002101200AF097FE3C4B186000218C
:1025900001200AF091FE3A4B1860002101200AF058
:1025A0008BFE384B1860002101200AF085FE364B67
:1025B0001860002101200AF07FFE344B18600024CF
:1025C000334B1C7000F0C6FFFDF792FFFEF704F8D6
:1025D00006F04CFA53200FF0EDF849F640414DF665
:1025E0000C700FF04DF900F0EDFC07F001FCFFF767
:1025F00077FD0494039402940194022500952346E8
:1026000064222449244804F037FE10F019F9FFF73A
:1026100091FF04940394029401940095234646226A
:102620001E491F4804F028FE049403940294019468
:102630000095234646221B491B4804F01DFE0494C6
:10264000039402940194009523464FF4C8721749ED
:10265000174804F011FE174AD36843F08073D36023
:10266000154B1A6842F001021A605C60FFF730FFF8
:1026700004F0E4FEFEE700BF00B2000224B2002036
:10268000F0B700200CB2002098C60020E4B600206D
:10269000D8B00020907901085D1F010898790108E1
:1026A0000D230008A07901085D230008A87901081E
:1026B000A9230008F0ED00E0001000E010B4244B66
:1026C0009B6803F00C03042B05D0082B06D00BBB32
:1026D000204B036020E0204B03601DE01C4B5A6838
:1026E0005B6803F03F0312F4800F194A5268C2F38B
:1026F000881214BF18491749B1FBF3F303FB02F228
:10270000134B5B68C3F3014301335B00B2FBF3F38C
:10271000036001E00F4B03600D4CA368C3F3031388
:102720000E49CB5CDAB20368D3404360A268C2F3BF
:1027300082228A5CD2B223FA02F28260A268C2F3D9
:1027400042328A5CD2B2D340C3605DF8044B70471A
:10275000003802400024F40000127A000C0000202F
:1027600021B1054B1A6B104318637047024A136B73
:1027700023EA0000106370470038024021B1054B86
:102780001A6C104318647047024A136C23EA000065
:10279000106470470038024021B1054B5A6C104359
:1027A00058647047024A536C23EA00005064704733
:1027B0000038024021B1054B1A6910431861704777
:1027C000024A136923EA0000106170470038024092
:1027D00021B1054B1A6A104318627047024A136A06
:1027E00023EA00001062704700380240094B1B8842
:1027F000132B0DD8084A5900C81802EB800080ED51
:10280000000AC0ED010A80ED021A0133014A13806B
:10281000704700BFD4AC0020B8B50020024B0022A6
:102820001A805A801A717047D4AC002008B52DED7B
:10283000028BF0EE618A1E4B5B881E4A5800C1185D
:1028400002EB8101D1ED007A37EEC00AD1ED017AB9
:1028500077EEE00A91ED028A38EE418A60EE007A66
:1028600020EEA07A37EE877AF1EEC77AF4EE677A37
:10287000F1EE10FA05D0B0EE470A10F0E7FCF0EEEA
:10288000407A9FED0D7A68EE878A87EEA80AB0EE4F
:10289000C88A9FED0A7AC8EE077AB4EEE70AF1EE2D
:1028A00010FAD8BFB0EE670ABDEC028B08BD00BFBE
:1028B000D4AC0020B8B500206666E63F3333333F22
:1028C000C0ED020A80ED030AB1EE417AF0EE087A1B
:1028D000C7EE276A30EEA07A37EE027A26EE877AC4
:1028E00071EEC01A71EE871A61EEA71A21EE017A15
:1028F000C1EE876AC0ED016AB8EE007A21EE077A70
:1029000027EE267A32EE602A32EE072A61EE277A27
:1029100027EE811AC2EE017AC0ED007A704700BF3F
:1029200070B52DED088BF0EE40AAF0EE609AF0EE57
:10293000418AB0EE61BAB0EE42AAB0EE629AF0EE11
:10294000431AFFF773FFB0EE401A224C84ED0C0AD5
:102950009FED218A214D224E738803EB430305EB43
:102960008303B0EE482AD3ED001AF0EE4B0AB0EE26
:102970006A0A2046FFF7A4FF738803EB430305EBC5
:102980008303B0EE482AD3ED011A94ED0C1AF0EE51
:102990004A0AB0EE690A04F11000FFF791FF73884C
:1029A00003EB430305EB8305B0EE482AD5ED021A8D
:1029B00094ED0C1AF0EE490AB0EE680A04F120001A
:1029C000FFF77EFF074B5A6A074B1A60BDEC088B76
:1029D00070BD00BF84B5002000000000B8B5002025
:1029E000D4AC0020000C0040A8B60020024B00220E
:1029F0005A801A71704700BFD4AC002007EE900ACD
:102A0000F8EE676A9FED3B7AC6EE877A3A4BD3EDD4
:102A1000035A93ED025A27EE857A77EE255A93ED05
:102A2000017A77EE076A66EEA76A36EE855A27EED8
:102A3000A76A27EE067A37EE257AD3ED006A67EEAD
:102A4000865A66EEA54A34EE877A81ED007AB0EEBA
:102A5000084A66EE846A66EE866A76EE856AC2ED9C
:102A6000006A93ED075AD3ED064A27EEA47A37EEB3
:102A7000057A93ED055A75EE056A66EEA76A76EE5D
:102A8000A44A26EE055A35EE075AD3ED046A25EE20
:102A9000A67A37EE055A81ED015A66EE846A66EE33
:102AA000866A76EEA46AC2ED016AD3ED0B4A93ED15
:102AB0000A7A67EE876A76EEA44AD3ED096A36EEA3
:102AC000A65A65EE277A77EE877A66EE266A76EE64
:102AD000A46A93ED087A65EE875A75EEA65AC1EDA1
:102AE000025A27EE047A27EE067A77EE277AC2EDAD
:102AF000027A70470024744984B5002070B52DED2A
:102B0000048B04460D461646F0EE408AB0EE609AFD
:102B1000F0EE419AB0EE618A734A127D013202F002
:102B20000702D2B270490A75A3B30B4683ED060AB9
:102B3000C3ED070A83ED081A00224A628A62CA625C
:102B400000220A754B88694A5800C11802EB8101BE
:102B500091ED006A36EE406A91ED017A37EE607AC7
:102B6000D1ED026A76EEC16A66EE067A67EE075A22
:102B700077EEA57A66EEA65A77EEA57AF1EEE75AD9
:102B8000F4EE655AF1EE10FA06D0B0EE670A10F0D6
:102B90005DFB01E08AB97EE0534BB0EE483AD3EDDD
:102BA0000B2A93ED0A2AD3ED091A93ED081AD3EDF7
:102BB000070A93ED060AFFF7B3FE4D4B5B6A4D4AD9
:102BC0001068181A07EE900AF8EE676A9FED4A7AC5
:102BD000C6EE877A494B93ED0C7AB4EEE77AF1EEC4
:102BE00010FA06DD404901F124021831FFF706FF13
:102BF00049E03D4B5B883D4A5800C11802EB81011A
:102C000091ED000A30EE680AD1ED010A70EEC90AB2
:102C100091ED021A31EE691A60EE007A20EEA07A88
:102C200077EE877A21EE017A77EE877AB1EEE77A4E
:102C3000B4EE477AF1EE10FA05D0B0EE670A10F064
:102C400005FBB0EE407ADFED2E7AB4EEE77AF1EED6
:102C500010FA18D5244B5A880132188892FBF0F1EB
:102C600000FB11225A80B0EE483AD3ED0B2A93EDC7
:102C70000A2AD3ED091A93ED081AD3ED070A93ED4A
:102C8000060AFFF74DFE184B9A692260DA692A603E
:102C90001B6A336024E0144B5A880C21134B01FB50
:102CA0000233D3ED006A76EEC06AD3ED017A77EE97
:102CB000E07A93ED027A37EE417A67EEA77A46EE34
:102CC000A67AB0EE670A07EE070A10F0BFFAF0EE38
:102CD000087AB4EEE70AF1EE10FA7FF76EAF5BE721
:102CE000BDEC048B70BD00BFD4AC0020B8B5002093
:102CF000000C0040A8B600200024744984B50020D0
:102D00009A99993E08B5164A537801335370154B7A
:102D10001A6801321A601A680132134BA3FB0213BE
:102D20009B0803EB83039A4204D11049104B1868A7
:102D30000AF0D8FA0A4B5B78092B10D90D4A1368B0
:102D4000013313600022064B5A700B4B1B7813F0B3
:102D5000FF0F01D00FF0D6FC084800F0ADFA08BD17
:102D600008AD0020ECB10020CDCCCCCC0CAD0020C7
:102D700064B00020A43B0120A83B012000200140BA
:102D800070B52DED0A8B9FED6E9AF0EE499ADFED4E
:102D90006D8A00246C4D9FED6DBADFED6DAA9FED3D
:102DA0006DCADFED6DBA6D4E23464FF0FF322146FE
:102DB00030680AF0C7FA6A494B686A4A10681B1AF9
:102DC000694803604B6813603379FF2B02D00133ED
:102DD000337133E02B8807EE903AF8EE677AF1EE24
:102DE000677A77EEA77A67EE8B7A67EEAA7A5B4B03
:102DF0005B7913F0800F09D1584A0133537192ED7A
:102E0000027A77EE277AC2ED027A17E0802B0AD198
:102E1000524B93ED027ADFED556A27EE267A83ED69
:102E2000037A81225A7169EE8C9A4C4B93ED037AA6
:102E300077EEC77A67EEAB7A77EEA99ADFED4C7A38
:102E400028EE278A6B8807EE903AF8EE677A9FEDB6
:102E5000497A67EE877A9FED487A67EE877A37EE90
:102E6000888A69EE88CADFED457A69EEA77ADFEDD8
:102E7000446A87EEA67A39EE079ADFED427A68EE69
:102E8000A78ADFED417A68EE277A77EEA88ADFED30
:102E90003F7AB4EEE79AF1EE10FA07D5B0EE677A12
:102EA00077EEC97A67EEA67A87EE87AA384B1A685A
:102EB00043F698239A4215D9F2EE077AB4EEE78AE0
:102EC000F1EE10FA0ED5F2EE007AB4EEE78AF1EEEA
:102ED00010FA07DD2F4A137843F0400313700222E3
:102EE0002D4B1A702D4E23464FF0FF32214630688D
:102EF0000AF028FA2A4BC3ED009A2A4B83ED008A88
:102F0000294B83ED009A294BC3ED00CA284BC3ED32
:102F1000008A284B83ED00AA2346224621463068CA
:102F20000AF040F9244B186804F096FC234B186013
:102F3000234622462146224800680AF033F932E748
:102F40000000000066668641C8B6002000005842B6
:102F500048E13A3AB280463F38FD653E10AD002068
:102F6000001000E0C0B60020B4B600200000003C15
:102F7000DE18DF3EF5A28C3B9173103FC9388E3EC0
:102F80000000C8423AB87E3F00E3A33B00A08C4556
:102F9000ECB1002015B20020A83B0120E4B60020CF
:102FA000DCB60020BCB60020C4B60020D8B6002095
:102FB000E0B60020D4B60020ACB60020B0B60020A9
:102FC00004AF00202DE9F041A2B0032300930023B9
:102FD0001A46194601200AF0CDF8524B186020B16C
:102FE00000231A4619460AF0DDF8002404940394DD
:102FF00002944D4B1B6801930427009723469622A9
:103000004A494B4804F038F94A4A4B4B1A600121AF
:103010004A48FFF7A5FB01214FF48070FFF7BCFB86
:103020000F2320934FF003088DF884808DF887409C
:1030300020A9434808F0E0FD424D2146284600F013
:10304000E7F816944FF47063199318944FF44033D3
:10305000179316A800F0C6F81A9401268DF86C6034
:103060008DF86D401C941E948DF87C701AA928462A
:1030700000F090F8072332460C21284600F0D4F8DF
:10308000072302220D21284600F0CEF807234246EE
:103090000A21284600F0C8F807233A460B212846A3
:1030A00000F0C2F80794284B0893284B09930A9420
:1030B0000B970C944FF480630D934FF400630E93C1
:1030C0004FF400530F934FF48073109311941294A4
:1030D0001396149415941E4C07A9204608F0BAFEC6
:1030E0003146284600F0FAF83146204608F0DEFE68
:1030F00032461021204608F0FFFE164B602283F86E
:103100003C234FF080525A603146284600F0DAF8EE
:1031100040F20133AB603146284600F079F822B026
:10312000BDE8F08110AD0020ACB60020B0790108F8
:10313000812D000866668641E0B60020050040004B
:1031400000080240002001404C200140C8B6002089
:103150007064024000E100E010B50A490A4808F036
:10316000B1FE0A4C04F1100120680AF0BBF8236993
:103170003BB14FF08052064B1A60BFF34F8FBFF345
:103180006F8F10BD200000207064024010AD002041
:1031900004ED00E010B4436823F0407222F4807222
:1031A0000B6813430A7943EA0223436084680A697F
:1031B000CB681A438B681A43094B234013434A795F
:1031C00043EA42038360C36A23F470020B7D013B30
:1031D000DBB242EA0353C3625DF8044B704700BFA1
:1031E000FDF7FFC010B4084C6268084B134001683B
:1031F0004268114382681143C2680A431343636003
:103200005DF8044B704700BF00230140E030FCFF35
:1032100021B1836843F0010383607047836823F022
:1032200001038360704700BF70B409290DD9C668D7
:10323000A1F10A0404EB44040725A54026EA05058C
:1032400003FA04F42C43C4600AE0066901EB41046C
:103250000725A54026EA050503FA04F42C4304617A
:10326000062A0CD8446B013A02EB82021F239340DA
:1032700024EA030301FA02F21A4342631AE00C2A19
:103280000CD8046B073A02EB82021F23934024EA16
:10329000030301FA02F21A4302630BE0C46A0D3A17
:1032A00002EB82021F23934024EA030301FA02F295
:1032B0001A43C26270BC7047836843F080438360E6
:1032C000704700BF21B1836843F480738360704707
:1032D000836823F480738360704700BF21B18368E3
:1032E00043F4007383607047836823F40073836042
:1032F000704700BF10B504460A4A138803F0400324
:103300009BB2002BF9D021460648FDF79BF8064AF0
:1033100013782344DBB2137004490A7813440B700A
:1033200010BD00BF0048004011B8002032B8002096
:10333000814B013BFDD18148411E1B30804A1388DF
:1033400003F040039BB2002BF9D011F8013F9380AA
:103350008142F4D1784B013BFDD1F0B585B0774E79
:1033600006F11B052436764C2746238803F04003DC
:103370009BB2002BF9D015F8011F3846FDF762F813
:10338000B542F2D14FF4164300930023ADF80C3050
:103390000C22ADF80A20ADF80830ADF80630ADF8D3
:1033A000043069466648FCF7DFFF49F64043013BBD
:1033B000FDD1634A138803F040039BB2002BF9D080
:1033C000B5215F48FDF73EF85D4A138803F04003DE
:1033D0009BB2002BF9D062215948FDF733F8062043
:1033E000FFF788FF2420FFF785FF2420FFF782FFE7
:1033F0000020FFF77FFF0520FFF77CFF0020FFF78D
:1034000079FF0620FFF776FF0220FFF773FF2024E5
:1034100000252846FFF76EFF631E13F0FF04F8D166
:10342000474A138803F040039BB2002BF9D0454B69
:1034300019784348FDF706F8414A138803F0400322
:103440009BB2002BF9D0404B19783D48FCF7FAFFAE
:1034500049F64043013BFDD1384E06F1270535368C
:10346000374C2746238803F040039BB2002BF9D04A
:1034700015F8011F3846FCF7E5FFB542F2D1334B92
:10348000013BFDD12D4E06F137053F362C4C27462A
:10349000238803F040039BB2002BF9D015F8011FDD
:1034A0003846FCF7CFFFAE42F2D1294B013BFDD1AC
:1034B000224E06F13F054F36214C2746238803F064
:1034C00040039BB2002BF9D015F8011F3846FCF7DA
:1034D000B9FFAE42F2D11E4B013BFDD1174E06F1B2
:1034E00050055B36164C2746238803F040039BB2F9
:1034F000002BF9D015F8011B3846FCF7A3FFB542A5
:10350000F2D1134B013BFDD10C4E06F15B056B363E
:103510000B4C2746238803F040039BB2002BF9D0C5
:1035200015F8011F3846FCF78DFFB542F2D1024B6A
:10353000013BFDD105B0F0BD80200500C079010838
:103540000048004011B8002032B80020E093040089
:10355000C02D080070B58CB00323009300231A46D9
:103560001946012009F006FE314B186020B10023F6
:103570001A46194609F016FE002404940394029496
:103580002C4B1B68019305230093234696222A495E
:103590002A4803F071FE01210820FFF7E1F84FF4FB
:1035A00040730A9302238DF82C308DF82D308DF85E
:1035B0002E4001258DF82F50214E0AA9304608F0E3
:1035C0001BFB07220821304608F068FB072209216F
:1035D000304608F063FB29464FF48020FFF7CEF811
:1035E0004FF416530693ADF824400C23ADF8223067
:1035F000ADF82040ADF81E40ADF81C40114C06A9B6
:103600002046FCF7B1FE29462046FCF70DFFFFF7E8
:103610008FFE0D4B80225A60402283F827232A46D2
:1036200040F225512046FCF715FF0CB070BD00BFDD
:1036300024AD0020E0B700209C790108E93D000896
:10364000000C02400048004000E100E070B540F28C
:1036500025315348FCF720FF01280CD1504C40F293
:1036600025312046FCF712FF2046FCF7EFFE4D4BBC
:1036700000229A809A7140F225514948FCF70CFFCC
:10368000012840F08B80464D40F225512846FCF73A
:1036900027FF444CA6882846FCF7D8FE424B985595
:1036A000A388042B3BD9A279002A38D13E4A1A4478
:1036B00012F8052CB52A64D13B4A1A4412F8042C9E
:1036C000622A5ED1384A1A4412F8032C012A5ED1CC
:1036D000354A1A4412F8022C072A58D1324A1A44A1
:1036E00012F8012C5C2A52D12F4AD25C002A4ED10A
:1036F0000122A27170BD2C4A1A4412F8022C042A2D
:103700003FD1294A1A4412F8012C122A39D1264AEB
:10371000D25C002A35D10222224B9A7170BD214A17
:103720009279012A15D1622B2BD11E4C0023A37153
:10373000A38004F10801206809F0D4FDA3686BB3ED
:103740004FF08052194B1A60BFF34F8FBFF36F8F4A
:1037500070BD022A15D1182B13D1124C0023A3716E
:10376000A38004F10801206809F0BCFDA368ABB197
:103770004FF080520D4B1A60BFF34F8FBFF36F8F26
:1037800070BDC72B0AD80133064A938070BD064A24
:103790001A4412F8032C012AF3D1ACE770BD00BF24
:1037A0000048004024AD002004B7002004ED00E0F4
:1037B0002DE9F04F2DED068B83B04279037943EA72
:1037C0000223DB4A13808279DA4B1A70C279DA4B12
:1037D0001A70027AD94B1A70427AD94B1A70827ACF
:1037E000D84B1A70027DD84B1A70D84DC37D2B7000
:1037F000427E837E1B0443EA0223027E1343C27E81
:1038000043EA0263D24A1360417F827F120442EA94
:103810000122017F0A43C17F42EA0162CD490A6069
:1038200090F82410009190F82540019490F826B06B
:1038300090F827A0DFF8689390F8294090F82A10B4
:10384000090441EA042190F82840214390F82B40D4
:1038500041EA0461C9F80010DFF8488390F82D4070
:1038600090F82E10090441EA042190F82C402143DD
:1038700090F82F4041EA0461C8F8001090F83140F8
:1038800090F83210090441EA042190F830402143B5
:1038900090F8334041EA04660AEE106A90F8354029
:1038A00090F83610090441EA042190F8344021438D
:1038B00090F8374041EA046609EE906A90F8394082
:1038C00090F83A10090441EA042190F83840214365
:1038D00090F83B4041EA046609EE106A90F83D100A
:1038E00090F83E40240444EA012190F83C400C4307
:1038F00090F83F1044EA016190F8417090F842401E
:10390000240444EA072690F84040344390F843608A
:1039100044EA066607EE906A8F4F90F845E090F80B
:103920004640240444EA0E2690F84440344390F87C
:10393000476044EA06643C6090F84D4090F84C00C3
:1039400040EA042008EE100A844CB8EE486ADFED25
:10395000846A86EE267A84ED007AF8EEE77ADFED67
:10396000816A87EEA67A804880ED007A07EE902A79
:10397000F8EEE77A9FED8C7AC7EE876A7B4AC2ED54
:10398000006A07EE903AF8EEE77AC7EE876A784B5E
:10399000C3ED006A07EE901AF8EEE77ADFED758A5C
:1039A00067EEA87A744BC3ED007A744E00234FF093
:1039B000FF321946306809F0C5FCF8EECA7A67EEA6
:1039C000A87A6F4BC3ED007AF8EEE97A67EEA87A31
:1039D0006C4BC3ED007AF8EEC97A67EEE87A6A4B71
:1039E000C3ED007A99ED007AB8EE477ADFED677A99
:1039F000C7EE276AC4ED016A98ED007AB8EE477AFF
:103A0000C7EE276AC4ED026A97ED007AB8EE477AEE
:103A1000C7EE276AC4ED036A5D4B5B6AA3F5923378
:103A2000F83B5C4A136000231A461946306809F0D7
:103A3000B9FB2B78082B40F2158118EE103AAE2B0B
:103A400000F210814FEA0A6A4AEA0B4B00994BEAEE
:103A5000010B019C4BEA04244F4B1B7B002B40F0D5
:103A6000BE804D4D01232B732C61394B1B686B615C
:103A7000384B1868A86113F0E5F823A3D3E90023B5
:103A800013F070FA22A3D3E9002313F041F941ECBB
:103A9000180B41EC100B0EF053FF51EC100B10EE15
:103AA000102A0B4613F034F91BA3D3E9002313F0BB
:103AB0002FF902460B460020384912F075FF41EC01
:103AC000190B9FED171B41EC100B0FF02DF853EC69
:103AD000102B15A1D1E9000113F044FA13F0F0FB0B
:103AE000E861B0EE490AF0EE690A0FF0B9F957EC57
:103AF000106BB0EE480AF0EE680A0EF0C1FE59EC09
:103B0000108B95ED077A51E000000000D012634160
:103B1000000000A046DF913FF094FEF1906B7B3FE8
:103B2000000000000000F83F5DBF4166E4FEFA407F
:103B300030B8002040B80020FCB6002020B800209B
:103B400010B80020E4B70020CCB7002038B800201F
:103B50002CB80020D0B7002000B800201C000020A6
:103B60000000C8420050C347E8B6002018B8002043
:103B700028B800206F12833AECB70020F0B700207D
:103B8000D4B70020F8B60020F8B7002000007A442F
:103B9000000C004008B8002024AD00200000F03FD9
:103BA00034B8002024B800208096184B1FED028AFC
:103BB000C7EE087AC5ED077A32463B4643A1D1E904
:103BC000000113F0CFF942464B4613F0A1F813F071
:103BD00077FB07EE100AC7EE087AC5ED087A2E4E7D
:103BE00000234FF0FF321946306809F0ABFB2B4D34
:103BF0002B4B1B686A699B1A07EE903AF8EEE77A3E
:103C000095ED087A67EE877A264BC3ED007A264B4E
:103C10001B68AA699B1A07EE903AF8EEE77A95EDD1
:103C2000077A67EE877A214BC3ED007A2B69E31A96
:103C300007EE903AF8EEE77A9FED1D7A67EE877A05
:103C40001C4BC3ED007A00231A461946306809F070
:103C5000A9FA194A137823F001031370012385F898
:103C6000243004E0144A137843F001031370002356
:103C70001A4619461148006809F094FA10494B6831
:103C8000104A10681B1A104803604B68136003B099
:103C9000BDEC068BBDE8F08FF0B7002024AD00200E
:103CA0002CB800201CB80020D0B70020D8B70020C6
:103CB0006F12833AF4B60020D8B000202CAF002059
:103CC000001000E0FCB70020E8B7002080D6C1D685
:103CD000772DFB402DE9F041DFF8B880427A037A76
:103CE00043EA0223A8F80030244FC27A837A43EAD9
:103CF00002233B80224EC27B837B43EA0223338034
:103D0000204D427C037C43EA02232B801E4C00237F
:103D10004FF0FF321946206809F014FB1B4BB8F82E
:103D2000002007EE102AB8EE477ADFED197AC7EEC9
:103D3000276AC3ED046A3A8807EE102AB8EE477A7C
:103D4000C7EE276AC3ED056A328807EE102AB8EE7F
:103D5000477AC7EE276AC3ED066A2A8807EE102A5B
:103D6000B8EE477AC7EE276AC3ED076A00231A4602
:103D70001946206809F016FABDE8F081F0B6002077
:103D800004B80020CEB70020F0B700201C000020AF
:103D90000000C842DCB700200378B52B23D143785C
:103DA000622B20D110B504468378012B0ED1C37845
:103DB000072B0BD103795C2B08D10530FFF7F8FCFA
:103DC0002378B52B0ED16378622B0BD1A378012B0E
:103DD00008D1E378042B05D12379122B02D1601D81
:103DE000FFF778FF10BD704708B5094E094D0A4C22
:103DF00000234FF0FF321946306809F0A3FA284635
:103E0000FFF7CAFF206803F027FD044B1860EFE7B7
:103E100024AD002004B70020E0B700203CB800200B
:103E2000D2ED007A91ED007A67EE876AD2ED037ADF
:103E300091ED017A67EE877A36EEA77AD2ED067AAF
:103E4000D1ED026A67EEA67A77EE277AC0ED007AA6
:103E5000D2ED017A91ED007A67EE876AD2ED047AAD
:103E600091ED017A67EE877A36EEA77AD2ED077A7E
:103E7000D1ED026A67EEA67A77EE277AC0ED017A75
:103E8000D2ED027A91ED007A67EE876AD2ED057A7B
:103E900091ED017A67EE877A36EEA77AD2ED087A4D
:103EA000D1ED026A67EEA67A77EE277AC0ED027A44
:103EB000704700BFD1ED007A67EEA75AD1ED017AC5
:103EC00067EEA77A91ED027A27EE077A91ED035A11
:103ED00025EE055A52B177EE876A76EE856A76EE60
:103EE000A56AF7EE004A84EEA66A01E0B7EE006A22
:103EF00077EEC76A76EEC56A76EEA56A66EE866AE2
:103F0000C0ED006A77EE676A76EEC56A76EEA56A5E
:103F100066EE866AC0ED046AF1EE676A36EEC77A2D
:103F200077EE057A77EEA57A67EE867AC0ED087AA5
:103F300091ED017AD1ED026A67EE266AD1ED037A3E
:103F400091ED007A27EE877A76EE877A77EEA77A78
:103F500067EE867AC0ED037A36EEC77A37EE077AD7
:103F600027EE067A80ED017A91ED017AD1ED036AB0
:103F700067EE266AD1ED027A91ED007A27EE877A14
:103F800076EEC77A77EEA77A67EE867AC0ED067A84
:103F900036EE877A37EE077A27EE067A80ED027AD8
:103FA00091ED027AD1ED037A27EE277AD1ED017AED
:103FB000D1ED006A67EEA67A77EE276A76EEA66AFA
:103FC00066EE866AC0ED076A77EE677A77EEA77AC3
:103FD00067EE867AC0ED057A704700BF92ED006A01
:103FE000FEEE007A26EE276AD2ED015A65EEA75A58
:103FF000D2ED026A66EEA77AD1ED006A91ED017A00
:1040000091ED024AD1ED034A26EE075A35EE265AC3
:1040100065EE843A35EE235A67EEA43A35EE235A1C
:1040200080ED005A26EE665A35EE075A67EE843A5E
:1040300035EE635A65EEA43A35EE235A80ED015A07
:1040400025EEE65A67EE873A35EE235A35EE045AE6
:1040500066EE243A35EE635A80ED025A67EEE66A60
:1040600025EE877A36EEC77A66EE047A77EE277AFF
:1040700077EEA47AC0ED037A704700BFD1ED107AD5
:1040800092ED007A77EE877AC3ED007A704700BF31
:10409000D1ED107A92ED007A77EE877AC3ED007A4F
:1040A000D1ED057A92ED017A77EE877AC3ED017A48
:1040B000704700BFD0ED007AFDEEE77A17EE900A68
:1040C00001EB8001D2ED007A91ED097A77EEC77AA3
:1040D000C3ED007A704700BFF0B4049F002F36DDB7
:1040E0000E4600EBC70201EB8705A2EB870401EB4C
:1040F000C701B6EE006AD2ED006AD3ED007A76EE23
:10410000A77AB6EC017A27EE007A37EE267AA2EC8F
:10411000017A67EE807AB5EC017AD4ED006A76EE2A
:10412000E76A20EE077A36EE877AA4EC017A20EE71
:10413000077AD0ED006A36EEC77A60EE277A67EE2E
:10414000867A77EE277AE0EC017A8D42D3D1F0BC03
:10415000704700BFD1ED007A92ED007A77EE877A52
:10416000C3ED007A704700BF2DE9F04F87B0D0F85B
:1041700000E00B880EEB030C4FEA4C060136446D51
:10418000456BC26D0661A0F858C0A0F85A60BCF13A
:10419000000F51DD9F1BBF000297CEF1000A03FB09
:1041A0000AFACEEB0A0AC2EB8A0AB30003934FEA7B
:1041B0008E0304930195A3464FEA8C039146002792
:1041C000DFED2C5A043305930EF10108B0EE656A59
:1041D000BE4538DDDBED006A37E0BE453EDD984583
:1041E00041DD94ED007AD0ED057A67EE277A08E09C
:1041F0004E685644164496ED007AD0ED057A67EE87
:10420000277A37EEA67A17EE106A42F8046F76EE38
:10421000E77AE5EC017A013304349C45DDDA0137B5
:10422000029B9A44039B9944019B049A1344019373
:104230000BF1040BBC45CBD10F4B186803F00CFB02
:104240000E4B186012E0F0EE656AC9ED006A059B3E
:1042500003EB0905019C4A460123BEE79845C7DDEB
:10426000F0EE467ACDE7F0EE467ACAE707B0BDE851
:10427000F08F00BF00000000C43A0120B03A0120D6
:1042800001FB00F003308008094B1B68034441F236
:104290007252934203D90122064B1A7001E0044A7C
:1042A0001360034B1B68181A034B03EB8000704725
:1042B000ECC4002048B800204C0500202DE9F8434C
:1042C00081460D4616468FB21FFA82F817FB08F09A
:1042D000042180B2FFF7D4FF044603464246394624
:1042E0004846FEF70FF806FB05F120469FED030A4E
:1042F0000DF042FA2046BDE8F88300BF0000000040
:104300002DE9F04F8BB004460F46049263881E4699
:1043100007931D46B4F800801388518801FB03F110
:1043200050689FEDCB0A0DF027FA33464645A8BFEB
:1043300043460393002B00F0A680334601339B00D5
:104340000593A3F10409B2001146C6EB86739B00E6
:104350000193002600966B42069308970F4687E06C
:10436000F3EC017A67EEA77A37EE277A9342F7D11A
:10437000B1EEC70AB4EE400AF1EE10FA03D0B0EE87
:10438000470A0EF063FF63683344D3ED007AF5EE1D
:10439000C07AF1EE10FA02DC03E09FEDAD0AB1EE57
:1043A000400AB5EE400AF1EE10FA00F06B81049974
:1043B0004B88009803FB00024B6803EB820383EDFC
:1043C000000A63683344D3ED007A77EEC07AC3ED18
:1043D000007A431C0293984541DD06EB0900069ADA
:1043E00091009E4603F1FF3C2DE0B2EC017AF3EC24
:1043F000017A67EE277A76EEE76A5345F5D163686E
:104400003344D3ED007A60EE277A86EEA76A8246BF
:10441000009A6368534403EB010BDBED007A66EE10
:10442000277A93ED007A77EE677AC3ED007A01324E
:104430000AF1040A9542ECDC0EF1010E4844019B9E
:104440001944F0450BD06545F6DDD4F804A00AEB1D
:1044500000020AEB0603BA44DFED7D6AC5E7059B5F
:104460001E444F44039B1946029A91420AD000927F
:10447000009B9D4240F30881626893193A449FED86
:10448000747A6DE7089F03994E1E2DD48946079ACA
:104490006FEA020B4FEA8B0B01F18043013B02FBF9
:1044A00009334FEA830C4FEA820E30460095049D93
:1044B0004A46C84510DD614663680B44D3ED007A77
:1044C0006B8800FB032A6B6803EB8A03C3ED007A59
:1044D000013271449045EFD1013809F1FF39DC44D4
:1044E000B0F1FF3FE4D1009D002F00F0C5803B8874
:1044F000798801FB03F178689FED550A0DF03CF9CE
:10450000079A531E039999420FDCD043800002FBA7
:10451000033292004FF07E5E8C4679681144C1F8F8
:1045200000E0013B02449C45F7DD002EC0F2A48070
:104530000799CB439B00069301FB06624FEA820B6F
:10454000CB439B00184607930B4601339B0006FBA9
:1045500003F30593089008460B4603FB06F3039903
:1045600001F180410139194489000091C0EB80714B
:1045700089000991014619444FEA810C8100039892
:1045800003449B1A9B00F7EE005A043B0393CDF8BB
:1045900004C0DDF810C07B685B44C3ED005A63685B
:1045A0005B44D3ED007AF5EE407AF1EE10FA51D08B
:1045B000B5424FDD039B5B4402930598B6463AE053
:1045C000B2EC017AD3ED007A67EE277A76EEE76AED
:1045D0000B449045F4D1BCF8022002FB0662DCF8E3
:1045E000043003EB820263685B4492ED007AD3ED02
:1045F000007A67EE277A86EEA76ADDF808A0814682
:10460000B0467B684B4462685244D2ED007A66EE55
:10461000277A93ED007A77EE677AC3ED007A08F196
:10462000010889440AF1040A4545EAD10EF1010E58
:10463000043075450ED0D4F804807B6803EB000984
:10464000009A4244019B9844DFED016A4B46B7E76C
:1046500000000000013E069B9B44059B079A134403
:104660000593009B089A13440093019B099A1344F5
:104670000193B6F1FF3F8ED1EFF30883094A13602F
:1046800001200CE000200AE063683344D3ED007A97
:10469000F5EEC07AF1EE10FA3FF77FAE00200BB0D6
:1046A000BDE8F08FFCB100202DE9F04F89B007463E
:1046B0008A4610469846129C139D1388A8F800302D
:1046C0001388A8F8023013882380538863800B88EE
:1046D0002B8013886B800B880593B2F802902246DA
:1046E0004146FFF70DFE2A46414650460DF068FF51
:1046F000059B002B6DD04E464FEA890809F1804397
:10470000013B9B000293C8F1040309FB03F30393ED
:104710006FEA09039B00009309F1FF331A460793E0
:1047200009FB03339900069109FB0299C3EB0903C6
:104730009B00019300230493079B002B3DDB039810
:10474000DDF818C002999E460EF1010A56451CDD9F
:10475000019B0CEB03096B6803EB010B7B684B447B
:10476000034462684A4493ED007AD2ED007A67EE22
:10477000277A9BED007A77EE677ACBED007A0AF123
:10478000010A09F104095645E5D17B680B446A68C2
:1047900002EB010962686244D9ED006A92ED007A89
:1047A000C6EE877AC3ED007A0EF1FF3E0439009B16
:1047B0009C444044BEF1FF3FC6D1049B01330493A7
:1047C000029A42440292039A42440392059A9A4200
:1047D000B2D109B0BDE8F08F2DE9F04705460E468D
:1047E00090461F4699469342B8BF91464FF4927146
:1047F0000120FFF745FD04464FF49272654B1A60A5
:104800000560C0F804802A4629463030FFF756FD7F
:10481000614B18602A46294604F13800FFF74EFD27
:104820004246414604F14000FFF748FD3A4639460A
:1048300004F14800FFF742FD0122294604F150002F
:10484000FFF73CFD09EB05014A00013204F1580075
:10485000FFF734FD08EB05025200294604F16C0015
:10486000FFF72CFD0122314604F17C00FFF726FD05
:1048700007EB05084FEA480A0AF10102314604F144
:104880007400FFF71BFD5246314604F18400FFF728
:1048900015FD3246314604F18C00FFF70FFD3F4B0A
:1048A00018603246314604F19400FFF707FD3246A6
:1048B000314604F19C00FFF701FD3246294604F120
:1048C000A400FFF7FBFC364B18602A46314604F182
:1048D000AC00FFF7F3FC3246294604F1B400FFF7C1
:1048E000EDFC3A46314604F1BC00FFF7E7FC4246D6
:1048F000314604F1C400FFF7E1FC3246294604F1D9
:10490000CC00FFF7DBFC0122314604F1DC00FFF7AD
:10491000D5FC0122294604F1EC00FFF7CFFC5246FA
:10492000294604F1F400FFF7C9FC4246294604F584
:104930008270FFF7C3FC3A46394604F58670FFF7EC
:10494000BDFC3A46294604F58A70FFF7B7FC154BC3
:104950001860ADB204212846FFF792FCA06604213E
:104960001FFA89F0FFF78CFC606604212846FFF7E8
:1049700087FC20660C4B63610C4BA3610C4B2362DC
:104980000C4B63620C4BA362089BC4F81C3120469D
:10499000BDE8F08704C600204CB8002078C4002091
:1049A0001CC50020DCC40020E146A640FFFFD74123
:1049B00027B4973CA411C53D9362C13D2DE9F04F4A
:1049C0002DED028B85B004460F46B0EE408AD0F83C
:1049D00000B0D0F80480D0F85490C56D066F00F197
:1049E0004001FFF7C1FBD4F810A00AFB0BF1CDF892
:1049F00000A0B0EE480A3B462A4605EB8101284656
:104A0000D4F81C71B84794ED067A0BEB080E07EE4C
:104A100090EAF8EEE77A77EE677AC7EE876AC4ED38
:104A2000076ABBF1000F64DD4A464FEA8A07281D7A
:104A300009EB8B09A7F1040C10ED017AD4ED077A8C
:104A400067EE277AE2EC017ABAF1010F10DD0CEB88
:104A500000010346B3EC017AD4ED087A67EE277AB9
:104A600012ED017A77EE277A42ED017A8B42F1D18D
:104A700038444A45E0D14FEACE09D8444FEA880A83
:104A80004FEA8E0303934FF00008BEF1000F2ADDBA
:104A90000AEB050206EB0A00039B05EB030C31460B
:104AA0002B4693ED017AD2ED017A37EE677AD4ED99
:104AB000097A67EE277AE1EC017A043393ED007A04
:104AC0000432D2ED007A37EE277AD5ED007A77EE10
:104AD000A77A77EE677A94ED0A7A67EE877AE0EC48
:104AE000017A6345DDD108F101083D444E44C345D8
:104AF000CBD104F138052A46002104F16C00FFF700
:104B0000FFFB04F1300128460AF028FF05B0BDEC98
:104B1000028BBDE8F08F00BF2DE9F04F9FB0044637
:104B200009911D920893299DD0F800B0D0F85C90AF
:104B3000036E0493436E0593836E0693836F0B930A
:104B4000D0F880301293D0F888300D93D0F8B03080
:104B50000F93D0F8B8301693D0F8C0301793D0F830
:104B6000C8301893D0F8E0301993D0F8F0301A9389
:104B7000436D1B93436B1C93D0F808311393D0F80B
:104B8000F8301193D5B3C66CBDF8A030A0F848300A
:104B9000A0F84A30289B03FB03F130469FED630ADF
:104BA0000CF0EAFD289B002B28DD03F101084FEAF9
:104BB000880800274FF0000ACDF80CB09B46F5ECB2
:104BC000017AF0EEE77AF5EEC07AF1EE10FA0DDD3B
:104BD000B1EEE70AB4EE400AF1EE10FA03D0B0EEFF
:104BE000670A0EF033FB86ED000A01E0C6F800A06C
:104BF00001374644BB45E2D1DDF80CB004F1480171
:104C00002046FFF7B1FA23691D460793089EB3B209
:104C1000A4F87C30A4F87430A4F87650A4F884305A
:104C200028990BEB010A4FEA4A0292B2A4F88620B7
:104C3000A4F88C30A4F88E30A4F89430A4F8963000
:104C4000A4F89C30A4F89E30A4F8A630A4F8AC30A8
:104C5000A4F8B630A4F8BC30BDF8A0101491A4F8A4
:104C6000BE10A4F8C4301FFA8BF01090014489B232
:104C70001591A4F8C610A4F8CE30A4F8DC30A4F83E
:104C8000F6202B46002D56DD0B9A4846AD000499C0
:104C900001EB8B080BFB03F39B000A93059B289900
:104CA00003EB8107069B03EB86064FF00009CDF866
:104CB00030A0924603950E9404462FE0196842F8FE
:104CC000041B2B444245F9D10395289B002B0ADD98
:104CD0000A9B1A19059B039D116843F8041B2A447B
:104CE0009F42F9D10395069B059A049909982A9D3C
:104CF000A847089B002B09DD069A5346039D52F8EE
:104D0000041B19602B44B242F9D1039509F1010942
:104D10000AF1040A0434079B4B4509D0BBF1000F8C
:104D2000D3DD049A2346039DC8E700BF00000000BE
:104D3000DDF830A00E9C94ED067A07EE90AAF8EE0E
:104D4000E77A77EE677AC7EE876AC4ED076A089953
:104D5000002940F3A180129D2A46079FBB000E93B5
:104D60000B9804304FEA81094D441E1F9E4610EDFA
:104D7000017AD4ED077A67EE277AE2EC017A012F07
:104D80000FDD31180346B3EC017AD4ED087A67EEF3
:104D9000277A12ED017A77EE277A42ED017A8B427B
:104DA000F1D17044AA42E2D1DDF82C804FEACA0367
:104DB0000C930D9B06934FEA8A030D93189B039364
:104DC0004FEA8B030A930F9B0493169B0793289B30
:104DD0009B000B93179BA3EB8B030593289B5B44D2
:104DE0009B000F9300230993BAF1000F39DD0F9A4E
:104DF000134602EB080C069E03EB060E0598079976
:104E0000049A039F45460023043595ED007A0CF182
:104E1000040CDCED007A37EE676AD4ED096A26EE01
:104E2000266A77EE277A98ED007A37EE077A77EEE2
:104E3000C77AD4ED0A6A67EEA67AA6EC016AEEECB0
:104E4000017A9B45C6BF82ED006A81ED006A80ED64
:104E5000006AE7EC017A01330432494404309A4590
:104E6000D2D1099B013309930E9A9044069A0C996A
:104E70000A440692039A0D990A440392049A0A99E5
:104E80000A440492079A04320792059A0B990A443D
:104E90000592089A9A42A7D104F19408424600214B
:104EA00004F18400FFF72CFA04F18C0304931946F3
:104EB00040460AF053FD04F19C0140460AF04EFDC5
:104EC00004F130010B46059104F1A4073A4604F1C0
:104ED000B40118460DF074FB04F1CC0904F582719D
:104EE0000B4604F5867504F58A76019600950391C4
:104EF000424639464846FFF7D7FB01960095039B8B
:104F0000049A49464846FFF7CFFB089800280FDD72
:104F10001D9D2B46129A199905EB8000B3EC017A7E
:104F2000F2EC017A77EE677AE1EC017A8342F5D10F
:104F300004F1EC0204F1DC0148460DF041FBBBF149
:104F4000000F56DD1A9A1B990B464FEA8B05294430
:104F5000F2EC017A93ED007A77EE277AE3EC017AAE
:104F60009942F5D16AE0E81839467246B3EC017A05
:104F7000F2EC017A77EE677AE1EC017A8342F5D1BF
:104F80000136AE4467440346B345ECD169E0B8F15D
:104F9000000F09DD0CEB000172460346F3EC017AC9
:104FA000E2EC017A9942F9D101376044B644BB453D
:104FB000EDDC72E0BAF1000F08DD781972462B467D
:104FC00053F8041B42F8041B8342F9D10CF1010C85
:104FD0003D44B644E345EDDC04F138052A460021A2
:104FE00004F1F400FFF78CF9059928460AF0B6FCA5
:104FF0006BE0109DA4F80451A4F80651039E3246BC
:1050000004F1AC0148460DF0DBFAA4F80451BDF8F8
:105010005030A4F80631324604F1BC0148460DF088
:10502000CFFAA4F80451BDF85430A4F80631324642
:1050300004F1C40148460DF0C3FACDE7109BA4F873
:105040000431A4F80631039A04F1AC0148460DF08E
:10505000B7FA1C9BDDF84CE04FEACA0C119F002602
:1050600081E7BDF84030A4F80431BDF85030A4F811
:105070000631039A04F1BC0148460DF0A1FA289BC1
:105080004FEA830C139805464FEACA06119B03EBBF
:105090008B0E0027DDF8A08079E7BDF84030A4F83A
:1050A0000431BDF85430A4F80631039A04F1C40168
:1050B00048460DF085FA4FEA8A07289B5B44119A0F
:1050C00002EB830E4FF0000C74E71FB0BDE8F08FC9
:1050D00038B505460C4691ED006A91ED017AD1EDA7
:1050E000026A66EE067A67EE075A77EEA57A66EEF2
:1050F000A65A77EEA57AB1EEE70AB4EE400AF1EED1
:1051000010FA03D0B0EE670A0EF0A0F894ED007A22
:10511000C7EE007AC5ED007A94ED017AC7EE007A09
:10512000C5ED017A94ED027AC7EE007AC5ED027AF8
:1051300038BD00BF10B50446D1ED005A91ED017A9B
:1051400091ED026AD1ED036A65EEA57A27EE075A62
:1051500077EE857A26EE065A77EE857A26EEA65AFF
:1051600077EE857AB1EEE70AB4EE400AF1EE10FA76
:1051700003D0B0EE670A0EF069F8B7EE007AC7EE1A
:10518000007A94ED007A27EE277A84ED007A94ED88
:10519000017A27EE277A84ED017A94ED027A27EEE0
:1051A000277A84ED027A94ED037A67EE277AC4EDCC
:1051B000037A10BD2DED088B92ED00BA92ED018AB5
:1051C000D2ED028A92ED03AA2BEE0B9AD1ED007A72
:1051D00078EEA8BAD1ED021A3AEE0A7A91ED011AE8
:1051E00068EE089A2AEE0A5A68EEA8AA6BEE2B0A15
:1051F00060EEA10A29EE270A30EE800A6BEE070A5C
:1052000060EE810A70EE600A27EEA92A70EE820A2B
:1052100068EE2B6A26EE811A30EE811A68EE076A74
:1052200066EEA11A71EE211A27EE852A71EEC21AD6
:1052300027EEAA2A31EEC22A80ED002A78EE087AFB
:1052400091ED006AD1ED016AD1ED023A7BEE0B1AC5
:1052500028EEA72A22EE062A6AEEA62A32EE222A93
:1052600068EE872A22EEA33A72EE032A2AEE217A0A
:1052700027EE063A32EE833A25EE264A33EE443ADA
:1052800029EE264A33EE043A2BEE27BA6BEE233A88
:1052900073EE633A29EEA64A33EEC44A80ED014A22
:1052A000D1ED005AD1ED016AD1ED023A6AEE274AFA
:1052B00024EEA54A6AEE2B4A64EEA64A74EE244A0E
:1052C00025EE235A34EE855A68EEA18A68EEA55A77
:1052D00075EE655A2AEEA36A35EEC66A28EE218A73
:1052E00068EE266A76EE266A29EEA37A36EEC77A4B
:1052F00069EE237A77EE277AC0ED027ABDEC088B4F
:10530000704700BF30B52DED048B87B015461C46A5
:1053100091ED049A91ED038AD1ED058A164B039322
:10532000164B0493164B059301F1300203A968460E
:10533000FFF740FFDDED007A39EE279ADDED027AC6
:1053400078EEA78ADDED017A38EE278AD5ED007A6E
:1053500038EE278A84ED008AD5ED017A77EE897AD6
:10536000C4ED017AD5ED027A77EEA87AC4ED027A1F
:1053700007B0BDEC048B30BD3D0AD7BDAE47E13D63
:10538000703D0A3E00B585B013680093D2ED017AF6
:10539000F1EE677ACDED017AD2ED027AF1EE677A1D
:1053A000CDED027AD2ED037AF1EE677ACDED037A94
:1053B0006A46FFF7FFFE05B05DF804FB38B51546F9
:1053C0001C4601F130020E491846FFF7DBFFD4ED11
:1053D000007A95ED007A77EE877AC4ED007AD4ED05
:1053E000017A95ED017A77EE877AC4ED017AD4EDF2
:1053F000027A95ED027A77EE877AC4ED027A38BDAB
:1054000058B80020D2ED007A91ED007A67EE876AF5
:10541000D2ED017A91ED017A67EE877A36EEA77ABE
:10542000D2ED027AD1ED026A67EEA67A77EE277A9C
:10543000C0ED007AD2ED037A91ED007A67EE876ACB
:10544000D2ED047A91ED017A67EE877A36EEA77A8B
:10545000D2ED057AD1ED026A67EEA67A77EE277A69
:10546000C0ED017AD2ED067A91ED007A67EE876A97
:10547000D2ED077A91ED017A67EE877A36EEA77A58
:10548000D2ED087AD1ED026A67EEA67A77EE277A36
:10549000C0ED027A704700BF2DE9F04F2DED028B71
:1054A000AFB03A9A002A40F39A81B0EE408A1C4687
:1054B00002EB420300EB8303079301904FEA820E55
:1054C00073440993CEEB0205AD0003EB050A12010C
:1054D0000AEB02030A931D443A9BDB003A98181A20
:1054E00005EBC0000B903A9EA0EB061002907044B2
:1054F0000390704404907044064605906FF02300BA
:105500003A9F00FB076B0BEB0E0909EB0E083B44BF
:1055100001EB83030C9373440D93734418460E936D
:105520000F916FF0270303FB07031093734411934C
:1055300008EB0E071344129307EB0E067344139304
:1055400006EB0E02069273441A4614936FF013038F
:105550003A9903FB012315937344169373441793ED
:1055600000230893DFEDA08A019BD3ED007A68EE5B
:10557000277A0798014690ED007A77EE277AE1ECDA
:10558000017A0791DAED007A68EE277A09980146E8
:1055900090ED007A77EE277AE1EC017A0991D5ED6A
:1055A000007A68EE277A0A98014690ED007A77EE45
:1055B000677AE1EC017A0A91D5ED007A68EE277AF4
:1055C0000B98014690ED007A77EE677AE1EC017A6C
:1055D0000B9102990B681893039803681993049A26
:1055E00013681A93059B1B681B93012218A90DF1E0
:1055F000700E7046FEF75EFC94ED007ADBED007AEB
:1056000077EE277ACDED2B7A94ED017AD9ED007AF9
:1056100077EE277ACDED2C7A94ED027AD8ED007AE8
:1056200077EE277ACDED2D7A0DF1700E72462BA90B
:1056300028A8FFF7E7FEDDED2A7A77EEE87ACDEDD0
:105640002A7A0C9AF2EC016A0C929DED297A28EEE6
:10565000077A019B1A4693ED006A37EE067A37EE19
:10566000267AA2EC017A01920D9BF3EC016A0D936C
:105670009DED287A28EE077A9AED006A37EE067AD1
:1056800037EE267AAAEC017A0E9BB3EC017A0E93E0
:1056900068EE277AD5ED006A76EEE77A77EE877ABC
:1056A000E5EC017A0F9BF3EC017A0F9368EE277A11
:1056B0009BED007A77EE277AEBEC017A109BF3EC06
:1056C000017A109368EE277A99ED007A77EE277ABF
:1056D000E9EC017A119BF3EC017A119368EE277AD9
:1056E00098ED007A77EE277AE8EC017A129BB3EC1A
:1056F000017A1293D4ED036AD7ED007A76EEA77A99
:1057000077EE877A67EE887ACDED257A139BB3EC36
:10571000017A1393D4ED046AD6ED007A76EEA77A77
:1057200077EE877A67EE887ACDED267A149BB3EC14
:10573000017A1493D4ED056A069BD3ED007A76EED8
:10574000A77A77EE877A67EE887ACDED277A25AA51
:1057500018A90846FEF742FC189B029941F8043B41
:105760000291199B039840F8043B03901A9B0499FB
:10577000084640F8043B04901B9B059941F8043B04
:1057800005911599F1EC017A159168EE277A97ED5C
:10579000007A77EE277AE7EC017A1699F1EC017A34
:1057A000169168EE277A96ED007A77EE277AE6EC86
:1057B000017A1799F1EC017A179168EE277A069B26
:1057C0001A4693ED007A77EE277AE2EC017A069298
:1057D000089B013308933A9A9A427FF4C5AE2FB0E2
:1057E000BDEC028BBDE8F08F0AE81C4170B52DEDD1
:1057F0000A8B0E4615461C4690ED009AD0ED019A94
:1058000090ED028AD0ED038A29EE09BA68EEA80A63
:1058100070EE8B0AB6EE00AA28EE280A69EE297A05
:1058200070EECA0A30EE270A0DF07AFBF0EE40AABD
:1058300068EE080A70EE8B0A29EE880A69EE287A6B
:1058400070EECA0A30EE670A0DF06AFBF1EE40BA5C
:105850002BEE8ACAB0EE4C0A0DF0D2F8B0EE40BA88
:10586000B0EE4C0A0DF014F9B1EE400A69EE0B7A75
:1058700028EE807A37EEC77A68EE8B8A29EE009A96
:1058800078EE898AC6ED00BA67EE077A68EEA80A54
:1058900077EEA00A69EE8B7A68EE006A77EEE67A18
:1058A00067EEA88A68EE0B7A29EE808A37EE888A3E
:1058B00028EE070A70EECA0A38EE800A0DF030FBB7
:1058C000B1EE400A85ED000AC4ED00AABDEC0A8BDA
:1058D00070BD00BFD0ED027A91ED017A27EEC77A54
:1058E000D0ED017AD1ED026A67EEA67A77EE277ADB
:1058F000C2ED007AD0ED027A91ED007A27EE877A38
:10590000D0ED007AD1ED026A67EEA67A77EE677A7B
:10591000C2ED017AD0ED017A91ED007A27EEC77AD7
:10592000D0ED007AD1ED016A67EEA67A77EE277A9C
:10593000C2ED027A704700BF70B52DED048B8CB0BC
:105940000C4616461D4691ED019A91ED008AD1ED67
:10595000028A2E4B1A682E4BD3F8141C02F28620B2
:1059600003EB8000D0ED017A91ED097A77EE877A2A
:10597000CDED037A02F2AE2003EB8000D0ED017A88
:1059800091ED0A7A77EE877ACDED047A02F2D6228B
:1059900003EB8203D3ED017A91ED0B7A77EE877AF0
:1059A000CDED057A1B4B09931B4B0A931B4B0B93B5
:1059B0006A4609A903A8FFF78DFF04F13002694682
:1059C00006A8FFF7F7FBDDED067A39EE279ADDED45
:1059D000087A78EEE78ADDED077A38EE278AD6ED89
:1059E000007A38EE278A85ED008AD6ED017A77EEC7
:1059F000897AC5ED017AD6ED027A77EEA87AC5EDFF
:105A0000027A0CB0BDEC048B70BD00BFF0C5002065
:105A100054B800203D0AD7BDAE47E13D703D0A3E77
:105A200000B52DED048B8BB0394BD3F8143C93EDBE
:105A3000069A30EE099AD3ED078A70EEA88A93EDA4
:105A4000088A31EE088A69EE097A28EEA87A77EE9C
:105A5000877A28EE087A37EE877AF1EEC77AF4EE85
:105A6000677AF1EE10FA05D0B0EE470A0DF0EEFBC2
:105A7000F0EE407A89EE277A8DED047A88EEA77AE7
:105A80008DED057A88EE277A8DED067A9FED210A55
:105A900070EE677AF0EEE77A17EE900A11F0E4F80C
:105AA00017A3D3E9002311F033F917A3D3E9002397
:105AB00010F07CFF11F004FC07EE900A0790164BE3
:105AC0001B7813F0080F05D19FED147A67EE877AE3
:105AD000CDED077A079B089309930D4B1868104B7F
